Component: ARM Compiler 6.13.1 Tool: armlink [5d895400]

==============================================================================

Section Cross References

    main.o(.text.main) refers to sec_sys.o(.text.SEC_Sys_Init) for SEC_Sys_Init
    main.o(.text.main) refers to sec_sys.o(.text.SEC_Sys_Run) for SEC_Sys_Run
    main.o(.ARM.exidx.text.main) refers to main.o(.text.main) for [Anonymous Symbol]
    sec_ask.o(.text) refers (Special) to _printf_c.o(.ARM.Collect$$_printf_percent$$00000013) for _printf_c
    sec_ask.o(.text) refers (Special) to _printf_d.o(.ARM.Collect$$_printf_percent$$00000009) for _printf_d
    sec_ask.o(.text) refers (Special) to _printf_f.o(.ARM.Collect$$_printf_percent$$00000003) for _printf_f
    sec_ask.o(.text) refers (Special) to printf1.o(x$fpl$printf1) for _printf_fp_dec
    sec_ask.o(.text) refers (Special) to _printf_i.o(.ARM.Collect$$_printf_percent$$00000008) for _printf_i
    sec_ask.o(.text) refers (Special) to _printf_dec.o(.text) for _printf_int_dec
    sec_ask.o(.text) refers (Special) to _printf_lc.o(.ARM.Collect$$_printf_percent$$00000015) for _printf_lc
    sec_ask.o(.text) refers (Special) to _printf_hex_int.o(.text) for _printf_longlong_hex
    sec_ask.o(.text) refers (Special) to _printf_oct_int.o(.text) for _printf_longlong_oct
    sec_ask.o(.text) refers (Special) to _printf_o.o(.ARM.Collect$$_printf_percent$$0000000B) for _printf_o
    sec_ask.o(.text) refers (Special) to _printf_percent.o(.ARM.Collect$$_printf_percent$$00000000) for _printf_percent
    sec_ask.o(.text) refers (Special) to _printf_pad.o(.text) for _printf_pre_padding
    sec_ask.o(.text) refers (Special) to _printf_str.o(.text) for _printf_str
    sec_ask.o(.text) refers (Special) to _printf_truncate.o(.text) for _printf_truncate_signed
    sec_ask.o(.text) refers (Special) to _printf_u.o(.ARM.Collect$$_printf_percent$$0000000A) for _printf_u
==============================================================================

Removing Unused input sections from the image.

    Removing main.o(.text), (0 bytes).
    Removing main.o(.ARM.exidx.text.main), (8 bytes).
    Removing main.o(.ARM.use_no_argv), (4 bytes).
    Removing sec_ask.o(.text), (0 bytes).
    Removing sec_ask.o(.text.Create_Frame_AskSensor_Port_1), (34 bytes).
    Removing sec_ask.o(.ARM.exidx.text.Create_Frame_AskSensor_Port_1), (8 bytes).
    Removing sec_ask.o(.text.Create_Frame_AskSensor_Port_2), (36 bytes).
    Removing sec_ask.o(.ARM.exidx.text.Create_Frame_AskSensor_Port_2), (8 bytes).
    Removing sec_ask.o(.text.Create_Frame_AskSensor_Port_3), (36 bytes).
    Removing sec_ask.o(.ARM.exidx.text.Create_Frame_AskSensor_Port_3), (8 bytes).
    Removing sec_ask.o(.text.Create_Frame_AskSensor_Port_4), (36 bytes).
    Removing sec_ask.o(.ARM.exidx.text.Create_Frame_AskSensor_Port_4), (8 bytes).
    Removing sec_ask.o(.text.Create_Frame_AskSensor_Port_5), (36 bytes).
    Removing sec_ask.o(.ARM.exidx.text.Create_Frame_AskSensor_Port_5), (8 bytes).
    Removing sec_ask.o(.text.Create_Frame_AskSensor_Port_6), (36 bytes).
    Removing sec_ask.o(.ARM.exidx.text.Create_Frame_AskSensor_Port_6), (8 bytes).
    Removing sec_ask.o(.text.Create_Frame_AskData_Port_1), (36 bytes).
    Removing sec_ask.o(.ARM.exidx.text.Create_Frame_AskData_Port_1), (8 bytes).
==============================================================================

Image Symbol Table

    Local Symbols

    Symbol Name                              Value     Ov Type        Size  Object(Section)

    ../clib/angel/boardlib.s                 0x00000000   Number         0  boardinit1.o ABSOLUTE
    ../clib/angel/boardlib.s                 0x00000000   Number         0  boardinit2.o ABSOLUTE
    ../clib/angel/boardlib.s                 0x00000000   Number         0  boardinit3.o ABSOLUTE
    ../clib/angel/boardlib.s                 0x00000000   Number         0  boardshut.o ABSOLUTE
    ../clib/angel/handlers.s                 0x00000000   Number         0  __scatter_copy.o ABSOLUTE
    ../clib/angel/handlers.s                 0x00000000   Number         0  __scatter_zi.o ABSOLUTE
    ../clib/angel/kernel.s                   0x00000000   Number         0  __rtentry.o ABSOLUTE
    ../clib/angel/kernel.s                   0x00000000   Number         0  __rtentry2.o ABSOLUTE
    ../clib/angel/kernel.s                   0x00000000   Number         0  __rtentry4.o ABSOLUTE
    ../clib/angel/kernel.s                   0x00000000   Number         0  rtexit.o ABSOLUTE
    ../clib/angel/kernel.s                   0x00000000   Number         0  rtexit2.o ABSOLUTE
    ../clib/angel/rt.s                       0x00000000   Number         0  rt_ctype_table.o ABSOLUTE
    ../clib/angel/rt.s                       0x00000000   Number         0  rt_locale.o ABSOLUTE
    ../clib/angel/rt.s                       0x00000000   Number         0  rt_locale_intlibspace.o ABSOLUTE
    ../clib/angel/rt.s                       0x00000000   Number         0  rt_errno_addr.o ABSOLUTE
    ../clib/angel/rt.s                       0x00000000   Number         0  rt_errno_addr_intlibspace.o ABSOLUTE
    ../clib/angel/rt.s                       0x00000000   Number         0  rt_raise.o ABSOLUTE
    ../clib/angel/scatter.s                  0x00000000   Number         0  __scatter.o ABSOLUTE
    ../clib/angel/startup.s                  0x00000000   Number         0  __main.o ABSOLUTE
    ../clib/angel/sys.s                      0x00000000   Number         0  libspace.o ABSOLUTE
    ../clib/angel/sys.s                      0x00000000   Number         0  sys_stackheap_outer.o ABSOLUTE
    ../clib/angel/sys.s                      0x00000000   Number         0  use_no_semi.o ABSOLUTE
    ../clib/angel/sys.s                      0x00000000   Number         0  indicate_semi.o ABSOLUTE
    ../clib/angel/sysapp.c                   0x00000000   Number         0  sys_command.o ABSOLUTE
    ../clib/angel/sysapp.c                   0x00000000   Number         0  sys_exit.o ABSOLUTE
    ../clib/angel/sysapp.c                   0x00000000   Number         0  sys_command_hlt.o ABSOLUTE
    ../clib/angel/sysapp.c                   0x00000000   Number         0  sys_exit_hlt.o ABSOLUTE
    ../clib/angel/sysapp.c                   0x00000000   Number         0  sys_wrch.o ABSOLUTE
    ../clib/angel/sysapp.c                   0x00000000   Number         0  sys_wrch_hlt.o ABSOLUTE
    ../clib/armsys.c                         0x00000000   Number         0  argv_veneer.o ABSOLUTE
    ../clib/armsys.c                         0x00000000   Number         0  argv_veneer.o ABSOLUTE
    ../clib/armsys.c                         0x00000000   Number         0  _get_argv_nomalloc.o ABSOLUTE
    ../clib/armsys.c                         0x00000000   Number         0  no_argv.o ABSOLUTE
    ../clib/bigflt.c                         0x00000000   Number         0  bigflt0.o ABSOLUTE
    ../clib/btod.s                           0x00000000   Number         0  btod.o ABSOLUTE
    ../clib/btod_accurate.c                  0x00000000   Number         0  btod_accurate.o ABSOLUTE
    ../clib/btod_accurate.c                  0x00000000   Number         0  btod_accurate_common.o ABSOLUTE
    ../clib/fenv.c                           0x00000000   Number         0  _rserrno.o ABSOLUTE
    ../clib/heapalloc.c                      0x00000000   Number         0  hrguard.o ABSOLUTE
    ../clib/heapaux.c                        0x00000000   Number         0  heapauxi.o ABSOLUTE
    ../clib/libinit.s                        0x00000000   Number         0  libinit.o ABSOLUTE
    ../clib/libinit.s                        0x00000000   Number         0  libinit2.o ABSOLUTE
    ../clib/libinit.s                        0x00000000   Number         0  libshutdown.o ABSOLUTE
    ../clib/libinit.s                        0x00000000   Number         0  libshutdown2.o ABSOLUTE
    ../clib/locale.c                         0x00000000   Number         0  _c16rtomb.o ABSOLUTE
    ../clib/locale.s                         0x00000000   Number         0  lc_numeric_c.o ABSOLUTE
    ../clib/locale.s                         0x00000000   Number         0  lc_ctype_c.o ABSOLUTE
    ../clib/longlong.s                       0x00000000   Number         0  lludiv10.o ABSOLUTE
    ../clib/longlong.s                       0x00000000   Number         0  llushr.o ABSOLUTE
    ../clib/memcpset.s                       0x00000000   Number         0  aeabi_memset.o ABSOLUTE
    ../clib/memcpset.s                       0x00000000   Number         0  rt_memclr.o ABSOLUTE
    ../clib/memcpset.s                       0x00000000   Number         0  rt_memclr_w.o ABSOLUTE
    ../clib/memcpset.s                       0x00000000   Number         0  strcmpv7m.o ABSOLUTE
    ../clib/misc.s                           0x00000000   Number         0  printf_stubs.o ABSOLUTE
    ../clib/printf.c                         0x00000000   Number         0  __2printf.o ABSOLUTE
    ../clib/printf.c                         0x00000000   Number         0  __2sprintf.o ABSOLUTE
    ../clib/printf.c                         0x00000000   Number         0  noretval__2printf.o ABSOLUTE
    ../clib/printf.c                         0x00000000   Number         0  noretval__2sprintf.o ABSOLUTE
    ../clib/printf.c                         0x00000000   Number         0  __printf.o ABSOLUTE
    ../clib/printf.c                         0x00000000   Number         0  _printf_pad.o ABSOLUTE
    ../clib/printf.c                         0x00000000   Number         0  _printf_truncate.o ABSOLUTE
    ../clib/printf.c                         0x00000000   Number         0  _printf_str.o ABSOLUTE
    ../clib/printf.c                         0x00000000   Number         0  _printf_dec.o ABSOLUTE
    ../clib/printf.c                         0x00000000   Number         0  _printf_wctomb.o ABSOLUTE
    ../clib/printf.c                         0x00000000   Number         0  _printf_oct_ll.o ABSOLUTE
    ../clib/printf.c                         0x00000000   Number         0  _printf_oct_int.o ABSOLUTE
    ../clib/printf.c                         0x00000000   Number         0  _printf_oct_int_ll.o ABSOLUTE
    ../clib/printf.c                         0x00000000   Number         0  _printf_hex_ll.o ABSOLUTE
    ../clib/printf.c                         0x00000000   Number         0  _printf_hex_int.o ABSOLUTE
    ../clib/printf.c                         0x00000000   Number         0  _printf_hex_int_ll.o ABSOLUTE
    ../clib/printf.c                         0x00000000   Number         0  _printf_hex_ptr.o ABSOLUTE
    ../clib/printf.c                         0x00000000   Number         0  _printf_hex_int_ptr.o ABSOLUTE
    ../clib/printf.c                         0x00000000   Number         0  _printf_hex_ll_ptr.o ABSOLUTE
    ../clib/printf.c                         0x00000000   Number         0  _printf_hex_int_ll_ptr.o ABSOLUTE
    ../clib/printf.c                         0x00000000   Number         0  __printf_flags.o ABSOLUTE
    ../clib/printf.c                         0x00000000   Number         0  __printf_ss.o ABSOLUTE
    ../clib/printf.c                         0x00000000   Number         0  __printf_flags_ss.o ABSOLUTE
    ../clib/printf.c                         0x00000000   Number         0  __printf_wp.o ABSOLUTE
    ../clib/printf.c                         0x00000000   Number         0  __printf_flags_wp.o ABSOLUTE
    ../clib/printf.c                         0x00000000   Number         0  __printf_ss_wp.o ABSOLUTE
    ../clib/printf.c                         0x00000000   Number         0  __printf_flags_ss_wp.o ABSOLUTE
    ../clib/printf.c                         0x00000000   Number         0  _printf_intcommon.o ABSOLUTE
    ../clib/printf.c                         0x00000000   Number         0  _printf_fp_dec.o ABSOLUTE
    ../clib/printf.c                         0x00000000   Number         0  _printf_fp_dec_accurate.o ABSOLUTE
    ../clib/printf.c                         0x00000000   Number         0  _printf_char_common.o ABSOLUTE
    ../clib/printf.c                         0x00000000   Number         0  _sputc.o ABSOLUTE
    ../clib/printf.c                         0x00000000   Number         0  _printf_char.o ABSOLUTE
    ../clib/printf.c                         0x00000000   Number         0  _printf_char_file.o ABSOLUTE
    ../clib/printf.c                         0x00000000   Number         0  _printf_wchar.o ABSOLUTE
    ../clib/printf.c                         0x00000000   Number         0  _printf_fp_infnan.o ABSOLUTE
    ../clib/printf.c                         0x00000000   Number         0  __printf_nopercent.o ABSOLUTE
    ../clib/printf_percent.s                 0x00000000   Number         0  _printf_c.o ABSOLUTE
    ../clib/printf_percent.s                 0x00000000   Number         0  _printf_s.o ABSOLUTE
    ../clib/printf_percent.s                 0x00000000   Number         0  _printf_x.o ABSOLUTE
    ../clib/printf_percent.s                 0x00000000   Number         0  _printf_o.o ABSOLUTE
    ../clib/printf_percent.s                 0x00000000   Number         0  _printf_i.o ABSOLUTE
    ../clib/printf_percent.s                 0x00000000   Number         0  _printf_d.o ABSOLUTE
    ../clib/printf_percent.s                 0x00000000   Number         0  _printf_u.o ABSOLUTE
    ../clib/printf_percent.s                 0x00000000   Number         0  _printf_f.o ABSOLUTE
    ../clib/printf_percent.s                 0x00000000   Number         0  _printf_percent.o ABSOLUTE
    ../clib/printf_percent.s                 0x00000000   Number         0  _printf_lc.o ABSOLUTE
    ../clib/printf_percent.s                 0x00000000   Number         0  _printf_percent_end.o ABSOLUTE
    ../clib/printf_percent.s                 0x00000000   Number         0  _printf_l.o ABSOLUTE
    ../clib/signal.c                         0x00000000   Number         0  defsig_rtmem_outer.o ABSOLUTE
    ../clib/signal.c                         0x00000000   Number         0  defsig_rtmem_formal.o ABSOLUTE
    ../clib/signal.c                         0x00000000   Number         0  defsig_exit.o ABSOLUTE
    ../clib/signal.c                         0x00000000   Number         0  defsig_rtmem_inner.o ABSOLUTE
    ../clib/signal.c                         0x00000000   Number         0  __raise.o ABSOLUTE
    ../clib/signal.c                         0x00000000   Number         0  defsig_general.o ABSOLUTE
    ../clib/signal.c                         0x00000000   Number         0  defsig_abrt_inner.o ABSOLUTE
    ../clib/signal.c                         0x00000000   Number         0  defsig_fpe_inner.o ABSOLUTE
    ../clib/signal.c                         0x00000000   Number         0  defsig_rtred_inner.o ABSOLUTE
    ../clib/signal.c                         0x00000000   Number         0  defsig_stak_inner.o ABSOLUTE
    ../clib/signal.c                         0x00000000   Number         0  defsig_pvfn_inner.o ABSOLUTE
    ../clib/signal.c                         0x00000000   Number         0  defsig_cppl_inner.o ABSOLUTE
    ../clib/signal.c                         0x00000000   Number         0  defsig_segv_inner.o ABSOLUTE
    ../clib/signal.c                         0x00000000   Number         0  defsig_other.o ABSOLUTE
    ../clib/signal.s                         0x00000000   Number         0  defsig.o ABSOLUTE
    ../clib/stdio.c                          0x00000000   Number         0  putchar.o ABSOLUTE
    ../clib/stdio.c                          0x00000000   Number         0  puts.o ABSOLUTE
    ../clib/stdio.c                          0x00000000   Number         0  ferror.o ABSOLUTE
    ../clib/stdio.c                          0x00000000   Number         0  ferror_locked.o ABSOLUTE
    ../clib/stdlib.c                         0x00000000   Number         0  exit.o ABSOLUTE
    ../clib/string.c                         0x00000000   Number         0  strchr.o ABSOLUTE
    ../clib/string.c                         0x00000000   Number         0  strstr.o ABSOLUTE
    ../fplib/d2f.s                           0x00000000   Number         0  d2f.o ABSOLUTE
    ../fplib/daddsub.s                       0x00000000   Number         0  daddsub_clz.o ABSOLUTE
    ../fplib/dcheck1.s                       0x00000000   Number         0  dcheck1.o ABSOLUTE
    ../fplib/dcmpi.s                         0x00000000   Number         0  dcmpi.o ABSOLUTE
    ../fplib/ddiv.s                          0x00000000   Number         0  ddiv.o ABSOLUTE
    ../fplib/dflt.s                          0x00000000   Number         0  dflt_clz.o ABSOLUTE
    ../fplib/dleqf.s                         0x00000000   Number         0  dleqf.o ABSOLUTE
    ../fplib/dmul.s                          0x00000000   Number         0  dmul.o ABSOLUTE
    ../fplib/dnaninf.s                       0x00000000   Number         0  dnaninf.o ABSOLUTE
    ../fplib/dretinf.s                       0x00000000   Number         0  dretinf.o ABSOLUTE
    ../fplib/drleqf.s                        0x00000000   Number         0  drleqf.o ABSOLUTE
    ../fplib/dsqrt.s                         0x00000000   Number         0  dsqrt_noumaal.o ABSOLUTE
    ../fplib/f2d.s                           0x00000000   Number         0  f2d.o ABSOLUTE
    ../fplib/faddsub.s                       0x00000000   Number         0  faddsub_clz.o ABSOLUTE
    ../fplib/fcmp.s                          0x00000000   Number         0  fcmp.o ABSOLUTE
    ../fplib/fcmpi.s                         0x00000000   Number         0  fcmpi.o ABSOLUTE
    ../fplib/fdiv.s                          0x00000000   Number         0  fdiv.o ABSOLUTE
    ../fplib/feqf.s                          0x00000000   Number         0  feqf.o ABSOLUTE
    ../fplib/ffix.s                          0x00000000   Number         0  ffix.o ABSOLUTE
    ../fplib/fflt.s                          0x00000000   Number         0  fflt_clz.o ABSOLUTE
    ../fplib/fgeqf.s                         0x00000000   Number         0  fgeqf.o ABSOLUTE
    ../fplib/fleqf.s                         0x00000000   Number         0  fleqf.o ABSOLUTE
    ../fplib/fmul.s                          0x00000000   Number         0  fmul.o ABSOLUTE
    ../fplib/fnaninf.s                       0x00000000   Number         0  fnaninf.o ABSOLUTE
    ../fplib/fpinit.s                        0x00000000   Number         0  fpinit.o ABSOLUTE
    ../fplib/fpinit_empty.s                  0x00000000   Number         0  fpinit_empty.o ABSOLUTE
    ../fplib/fretinf.s                       0x00000000   Number         0  fretinf.o ABSOLUTE
    ../fplib/istatus.s                       0x00000000   Number         0  istatus.o ABSOLUTE
    ../fplib/printf1.s                       0x00000000   Number         0  printf1.o ABSOLUTE
    ../fplib/retnan.s                        0x00000000   Number         0  retnan.o ABSOLUTE
    ../fplib/scalbn.s                        0x00000000   Number         0  scalbn.o ABSOLUTE
    ../fplib/trapv.s                         0x00000000   Number         0  trapv.o ABSOLUTE
    ../fplib/usenofp.s                       0x00000000   Number         0  usenofp.o ABSOLUTE
    ../mathlib/dunder.c                      0x00000000   Number         0  dunder.o ABSOLUTE
    ../mathlib/fpclassify.c                  0x00000000   Number         0  fpclassify.o ABSOLUTE
    ../mathlib/poly.c                        0x00000000   Number         0  poly.o ABSOLUTE
    ../mathlib/pow.c                         0x00000000   Number         0  pow.o ABSOLUTE
    ../mathlib/pow.c                         0x00000000   Number         0  pow_x.o ABSOLUTE
    ../mathlib/qnan.c                        0x00000000   Number         0  qnan.o ABSOLUTE
    ../mathlib/sqrt.c                        0x00000000   Number         0  sqrt.o ABSOLUTE
    ../mathlib/sqrt.c                        0x00000000   Number         0  sqrt_x.o ABSOLUTE
    RTE\Device\STM32F103C8\startup_stm32f10x_md.s 0x00000000   Number         0  startup_stm32f10x_md.o ABSOLUTE
    dc.s                                     0x00000000   Number         0  dc.o ABSOLUTE
    main.c                                   0x00000000   Number         0  main.o ABSOLUTE
    misc.c                                   0x00000000   Number         0  misc.o ABSOLUTE
    sec_ask.c                                0x00000000   Number         0  sec_ask.o ABSOLUTE
    sec_convert.c                            0x00000000   Number         0  sec_convert.o ABSOLUTE
    sec_delay.c                              0x00000000   Number         0  sec_delay.o ABSOLUTE
    sec_device_command.c                     0x00000000   Number         0  sec_device_command.o ABSOLUTE
    sec_fsm.c                                0x00000000   Number         0  sec_fsm.o ABSOLUTE
    sec_gpio.c                               0x00000000   Number         0  sec_gpio.o ABSOLUTE
    sec_log.c                                0x00000000   Number         0  sec_log.o ABSOLUTE
    sec_menu.c                               0x00000000   Number         0  sec_menu.o ABSOLUTE
    sec_message.c                            0x00000000   Number         0  sec_message.o ABSOLUTE
    sec_ringbuffer.c                         0x00000000   Number         0  sec_ringbuffer.o ABSOLUTE
    sec_split_time.c                         0x00000000   Number         0  sec_split_time.o ABSOLUTE
    sec_sys.c                                0x00000000   Number         0  sec_sys.o ABSOLUTE
    sec_test.c                               0x00000000   Number         0  sec_test.o ABSOLUTE
    sec_uart.c                               0x00000000   Number         0  sec_uart.o ABSOLUTE
    stm32f10x_gpio.c                         0x00000000   Number         0  stm32f10x_gpio.o ABSOLUTE
    stm32f10x_rcc.c                          0x00000000   Number         0  stm32f10x_rcc.o ABSOLUTE
    stm32f10x_tim.c                          0x00000000   Number         0  stm32f10x_tim.o ABSOLUTE
    stm32f10x_usart.c                        0x00000000   Number         0  stm32f10x_usart.o ABSOLUTE
    system_stm32f10x.c                       0x00000000   Number         0  system_stm32f10x.o ABSOLUTE
    RESET                                    0x08000000   Section      236  startup_stm32f10x_md.o(RESET)
    !!!main                                  0x080000ec   Section        8  __main.o(!!!main)
    !!!scatter                               0x080000f4   Section       52  __scatter.o(!!!scatter)
    !!handler_copy                           0x08000128   Section       26  __scatter_copy.o(!!handler_copy)
    !!handler_zi                             0x08000144   Section       28  __scatter_zi.o(!!handler_zi)
    .ARM.Collect$$_printf_percent$$00000000  0x08000160   Section        0  _printf_percent.o(.ARM.Collect$$_printf_percent$$00000000)
    .ARM.Collect$$_printf_percent$$00000009  0x08000160   Section        6  _printf_d.o(.ARM.Collect$$_printf_percent$$00000009)
    .ARM.Collect$$_printf_percent$$00000017  0x08000166   Section        4  _printf_percent_end.o(.ARM.Collect$$_printf_percent$$00000017)
    .ARM.Collect$$libinit$$00000000          0x0800016a   Section        2  libinit.o(.ARM.Collect$$libinit$$00000000)
    .ARM.Collect$$libinit$$00000002          0x0800016c   Section        0  libinit2.o(.ARM.Collect$$libinit$$00000002)
    .ARM.Collect$$libinit$$00000004          0x0800016c   Section        0  libinit2.o(.ARM.Collect$$libinit$$00000004)
    .ARM.Collect$$libinit$$0000000A          0x0800016c   Section        0  libinit2.o(.ARM.Collect$$libinit$$0000000A)
    .ARM.Collect$$libinit$$0000000C          0x0800016c   Section        0  libinit2.o(.ARM.Collect$$libinit$$0000000C)
    .ARM.Collect$$libinit$$0000000E          0x0800016c   Section        0  libinit2.o(.ARM.Collect$$libinit$$0000000E)
    .ARM.Collect$$libinit$$00000011          0x0800016c   Section        0  libinit2.o(.ARM.Collect$$libinit$$00000011)
    .ARM.Collect$$libinit$$00000013          0x0800016c   Section        0  libinit2.o(.ARM.Collect$$libinit$$00000013)
    .ARM.Collect$$libinit$$00000015          0x0800016c   Section        0  libinit2.o(.ARM.Collect$$libinit$$00000015)
    .ARM.Collect$$libinit$$00000017          0x0800016c   Section        0  libinit2.o(.ARM.Collect$$libinit$$00000017)
    .ARM.Collect$$libinit$$00000019          0x0800016c   Section        0  libinit2.o(.ARM.Collect$$libinit$$00000019)
    .ARM.Collect$$libinit$$0000001B          0x0800016c   Section        0  libinit2.o(.ARM.Collect$$libinit$$0000001B)
    .ARM.Collect$$libinit$$0000001D          0x0800016c   Section        0  libinit2.o(.ARM.Collect$$libinit$$0000001D)
    .ARM.Collect$$libinit$$0000001F          0x0800016c   Section        0  libinit2.o(.ARM.Collect$$libinit$$0000001F)
    .ARM.Collect$$libinit$$00000021          0x0800016c   Section        0  libinit2.o(.ARM.Collect$$libinit$$00000021)
    .ARM.Collect$$libinit$$00000023          0x0800016c   Section        0  libinit2.o(.ARM.Collect$$libinit$$00000023)
    .ARM.Collect$$libinit$$00000025          0x0800016c   Section        0  libinit2.o(.ARM.Collect$$libinit$$00000025)
    .ARM.Collect$$libinit$$0000002C          0x0800016c   Section        0  libinit2.o(.ARM.Collect$$libinit$$0000002C)
    .ARM.Collect$$libinit$$0000002E          0x0800016c   Section        0  libinit2.o(.ARM.Collect$$libinit$$0000002E)
    .ARM.Collect$$libinit$$00000030          0x0800016c   Section        0  libinit2.o(.ARM.Collect$$libinit$$00000030)
    .ARM.Collect$$libinit$$00000032          0x0800016c   Section        0  libinit2.o(.ARM.Collect$$libinit$$00000032)
    .ARM.Collect$$libinit$$00000033          0x0800016c   Section        2  libinit2.o(.ARM.Collect$$libinit$$00000033)
    .ARM.Collect$$libshutdown$$00000000      0x0800016e   Section        2  libshutdown.o(.ARM.Collect$$libshutdown$$00000000)
    .ARM.Collect$$libshutdown$$00000002      0x08000170   Section        0  libshutdown2.o(.ARM.Collect$$libshutdown$$00000002)
    .ARM.Collect$$libshutdown$$00000004      0x08000170   Section        0  libshutdown2.o(.ARM.Collect$$libshutdown$$00000004)
    .ARM.Collect$$libshutdown$$00000007      0x08000170   Section        0  libshutdown2.o(.ARM.Collect$$libshutdown$$00000007)
    .ARM.Collect$$libshutdown$$0000000A      0x08000170   Section        0  libshutdown2.o(.ARM.Collect$$libshutdown$$0000000A)
    .ARM.Collect$$libshutdown$$0000000C      0x08000170   Section        0  libshutdown2.o(.ARM.Collect$$libshutdown$$0000000C)
    .ARM.Collect$$libshutdown$$0000000F      0x08000170   Section        0  libshutdown2.o(.ARM.Collect$$libshutdown$$0000000F)
    .ARM.Collect$$libshutdown$$00000010      0x08000170   Section        2  libshutdown2.o(.ARM.Collect$$libshutdown$$00000010)
    .ARM.Collect$$rtentry$$00000000          0x08000172   Section        0  __rtentry.o(.ARM.Collect$$rtentry$$00000000)
    .ARM.Collect$$rtentry$$00000002          0x08000172   Section        0  __rtentry2.o(.ARM.Collect$$rtentry$$00000002)
    .ARM.Collect$$rtentry$$00000004          0x08000172   Section        6  __rtentry4.o(.ARM.Collect$$rtentry$$00000004)
    .ARM.Collect$$rtentry$$00000009          0x08000178   Section        0  __rtentry2.o(.ARM.Collect$$rtentry$$00000009)
    .ARM.Collect$$rtentry$$0000000A          0x08000178   Section        4  __rtentry2.o(.ARM.Collect$$rtentry$$0000000A)
    .ARM.Collect$$rtentry$$0000000C          0x0800017c   Section        0  __rtentry2.o(.ARM.Collect$$rtentry$$0000000C)
    .ARM.Collect$$rtentry$$0000000D          0x0800017c   Section        8  __rtentry2.o(.ARM.Collect$$rtentry$$0000000D)
    .ARM.Collect$$rtexit$$00000000           0x08000184   Section        2  rtexit.o(.ARM.Collect$$rtexit$$00000000)
    .ARM.Collect$$rtexit$$00000002           0x08000186   Section        0  rtexit2.o(.ARM.Collect$$rtexit$$00000002)
    .ARM.Collect$$rtexit$$00000003           0x08000186   Section        4  rtexit2.o(.ARM.Collect$$rtexit$$00000003)
    .ARM.Collect$$rtexit$$00000004           0x0800018a   Section        6  rtexit2.o(.ARM.Collect$$rtexit$$00000004)
    .text                                    0x08000190   Section       64  startup_stm32f10x_md.o(.text)
    .text                                    0x080001d0   Section        0  noretval__2printf.o(.text)
    .text                                    0x080001e8   Section        0  _printf_dec.o(.text)
    .text                                    0x08000260   Section        0  __printf_flags_ss_wp.o(.text)
    .text                                    0x080003e8   Section        0  putchar.o(.text)
    .text                                    0x080003f4   Section        0  puts.o(.text)
    .text                                    0x08000420   Section        0  heapauxi.o(.text)
    .text                                    0x08000426   Section        0  _printf_intcommon.o(.text)
    _printf_input_char                       0x080004d9   Thumb Code    10  _printf_char_common.o(.text)
    .text                                    0x080004d8   Section        0  _printf_char_common.o(.text)
    .text                                    0x08000508   Section        0  _printf_char_file.o(.text)
    .text                                    0x0800052c   Section        0  ferror.o(.text)
    .text                                    0x08000534   Section        8  libspace.o(.text)
    .text                                    0x0800053c   Section       74  sys_stackheap_outer.o(.text)
    .text                                    0x08000586   Section        0  exit.o(.text)
    .text                                    0x08000598   Section        0  sys_exit.o(.text)
    .text                                    0x080005a4   Section        2  use_no_semi.o(.text)
    .text                                    0x080005a6   Section        0  indicate_semi.o(.text)
    [Anonymous Symbol]                       0x080005a8   Section        0  sec_message.o(.text.CheckSum)
    [Anonymous Symbol]                       0x080005e0   Section        0  sec_fsm.o(.text.Fsm_Receive_Message)
    [Anonymous Symbol]                       0x08000724   Section        0  sec_gpio.o(.text.GET_GPIO_PORT_Init)
    [Anonymous Symbol]                       0x08000760   Section        0  stm32f10x_gpio.o(.text.GPIO_Init)
    [Anonymous Symbol]                       0x08000810   Section        0  stm32f10x_gpio.o(.text.GPIO_PinRemapConfig)
    [Anonymous Symbol]                       0x08000880   Section        0  stm32f10x_gpio.o(.text.GPIO_ReadInputDataBit)
    [Anonymous Symbol]                       0x0800088c   Section        0  stm32f10x_gpio.o(.text.GPIO_ResetBits)
    [Anonymous Symbol]                       0x08000890   Section        0  stm32f10x_gpio.o(.text.GPIO_SetBits)
    [Anonymous Symbol]                       0x08000894   Section        0  stm32f10x_rcc.o(.text.RCC_APB2PeriphClockCmd)
    [Anonymous Symbol]                       0x080008ac   Section        0  sec_fsm.o(.text.SEC_Clear_TimeOut_Fsm)
    [Anonymous Symbol]                       0x080008d0   Section        0  sec_delay.o(.text.SEC_DELAY_Init)
    [Anonymous Symbol]                       0x08000900   Section        0  sec_delay.o(.text.SEC_DELAY_ms)
    [Anonymous Symbol]                       0x08000934   Section        0  sec_gpio.o(.text.SEC_GPIO_Init)
    [Anonymous Symbol]                       0x08000948   Section        0  sec_gpio.o(.text.SEC_GPIO_Set_ON)
    [Anonymous Symbol]                       0x080009c4   Section        0  sec_split_time.o(.text.SEC_Read_status_port)
    [Anonymous Symbol]                       0x080009f8   Section        0  sec_split_time.o(.text.SEC_Split_frame_time)
    [Anonymous Symbol]                       0x08000b58   Section        0  sec_sys.o(.text.SEC_Sys_Init)
    [Anonymous Symbol]                       0x08000b78   Section        0  sec_sys.o(.text.SEC_Sys_Run)
    [Anonymous Symbol]                       0x08000b8c   Section        0  sec_fsm.o(.text.SEC_TimeOut_Fsm)
    [Anonymous Symbol]                       0x08000bb8   Section        0  sec_uart.o(.text.SEC_Uart1_SendChar)
    [Anonymous Symbol]                       0x08000bcc   Section        0  sec_uart.o(.text.SEC_Uart_Init1)
    [Anonymous Symbol]                       0x08000c28   Section        0  sec_uart.o(.text.SEC_Uart_Init2)
    [Anonymous Symbol]                       0x08000ca8   Section        0  sec_gpio.o(.text.SET_GPIO_PORT_Init)
    [Anonymous Symbol]                       0x08000d04   Section        0  sec_uart.o(.text.SET_GPIO_PORT_RS485_Init)
    [Anonymous Symbol]                       0x08000d34   Section        0  sec_convert.o(.text.Sec_Convert_From_Bytes_To_Uint16)
    SetSysClock                              0x08000d3d   Thumb Code     4  system_stm32f10x.o(.text.SetSysClock)
    [Anonymous Symbol]                       0x08000d3c   Section        0  system_stm32f10x.o(.text.SetSysClock)
    SetSysClockTo72                          0x08000d41   Thumb Code   190  system_stm32f10x.o(.text.SetSysClockTo72)
    [Anonymous Symbol]                       0x08000d40   Section        0  system_stm32f10x.o(.text.SetSysClockTo72)
    [Anonymous Symbol]                       0x08000e00   Section        0  system_stm32f10x.o(.text.SystemInit)
    [Anonymous Symbol]                       0x08000e58   Section        0  sec_uart.o(.text.USART1_IRQHandler)
    [Anonymous Symbol]                       0x08000e84   Section        0  sec_uart.o(.text.USART2_IRQHandler)
    [Anonymous Symbol]                       0x08000eac   Section        0  sec_uart.o(.text.USART3_IRQHandler)
    [Anonymous Symbol]                       0x08000efc   Section        0  stm32f10x_usart.o(.text.USART_ClearITPendingBit)
    [Anonymous Symbol]                       0x08000f0c   Section        0  stm32f10x_usart.o(.text.USART_ReceiveData)
    __NVIC_EnableIRQ                         0x08000f15   Thumb Code    32  sec_uart.o(.text.__NVIC_EnableIRQ)
    [Anonymous Symbol]                       0x08000f14   Section        0  sec_uart.o(.text.__NVIC_EnableIRQ)
    [Anonymous Symbol]                       0x08000f34   Section        0  sec_uart.o(.text.fputc)
    [Anonymous Symbol]                       0x08000f44   Section        0  main.o(.text.main)
    [Anonymous Symbol]                       0x08000f50   Section        0  sec_ringbuffer.o(.text.ringbuffer_init)
    i._is_digit                              0x08000f6a   Section        0  __printf_wp.o(i._is_digit)
    maptable                                 0x08000f78   Data          17  __printf_flags_ss_wp.o(.constdata)
    .constdata                               0x08000f78   Section       17  __printf_flags_ss_wp.o(.constdata)
    .L.str.3                                 0x08000f89   Data           4  sec_split_time.o(.rodata.str1.1)
    [Anonymous Symbol]                       0x08000f89   Section        0  sec_split_time.o(.rodata.str1.1)
    Count_port                               0x20000000   Data           1  sec_split_time.o(.data.Count_port)
    [Anonymous Symbol]                       0x20000000   Section        0  sec_split_time.o(.data.Count_port)
    .bss                                     0x20000040   Section       96  libspace.o(.bss)
    Arr_status_new                           0x200000a0   Data          10  sec_split_time.o(.bss.Arr_status_new)
    [Anonymous Symbol]                       0x200000a0   Section        0  sec_split_time.o(.bss.Arr_status_new)
    Arr_status_old                           0x200000aa   Data          10  sec_split_time.o(.bss.Arr_status_old)
    [Anonymous Symbol]                       0x200000aa   Section        0  sec_split_time.o(.bss.Arr_status_old)
    Count_time                               0x2000014c   Data           2  sec_split_time.o(.bss.Count_time)
    [Anonymous Symbol]                       0x2000014c   Section        0  sec_split_time.o(.bss.Count_time)
    Flag_TimeOut_Fsm                         0x2000014f   Data           1  sec_fsm.o(.bss.Flag_TimeOut_Fsm)
    [Anonymous Symbol]                       0x2000014f   Section        0  sec_fsm.o(.bss.Flag_TimeOut_Fsm)
    TimeOut_Fsm                              0x20000150   Data           2  sec_fsm.o(.bss.TimeOut_Fsm)
    [Anonymous Symbol]                       0x20000150   Section        0  sec_fsm.o(.bss.TimeOut_Fsm)
    fac_ms                                   0x200001c0   Data           2  sec_delay.o(.bss.fac_ms)
    [Anonymous Symbol]                       0x200001c0   Section        0  sec_delay.o(.bss.fac_ms)
    fac_us                                   0x200001c2   Data           1  sec_delay.o(.bss.fac_us)
    [Anonymous Symbol]                       0x200001c2   Section        0  sec_delay.o(.bss.fac_us)
    Heap_Mem                                 0x200001f8   Data         512  startup_stm32f10x_md.o(HEAP)
    HEAP                                     0x200001f8   Section      512  startup_stm32f10x_md.o(HEAP)
    Stack_Mem                                0x200003f8   Data        1024  startup_stm32f10x_md.o(STACK)
    STACK                                    0x200003f8   Section     1024  startup_stm32f10x_md.o(STACK)
    __initial_sp                             0x200007f8   Data           0  startup_stm32f10x_md.o(STACK)

    Global Symbols

    Symbol Name                              Value     Ov Type        Size  Object(Section)

    BuildAttributes$$THM_ISAv4$P$D$K$B$S$PE$A:L22UL41UL21$X:L11$S22US41US21$IEEE1$IW$~IW$USESV6$~STKCKD$USESV7$~SHL$OTIME$ROPI$IEEEX$EBA8$UX$STANDARDLIB$REQ8$PRES8$EABIv2 0x00000000   Number         0  anon$$obj.o ABSOLUTE
    __fp_init_empty                          0x00000000   Number         0  fpinit_empty.o ABSOLUTE
    _printf_flags                            0x00000000   Number         0  printf_stubs.o ABSOLUTE
    _printf_return_value                     0x00000000   Number         0  printf_stubs.o ABSOLUTE
    _printf_sizespec                         0x00000000   Number         0  printf_stubs.o ABSOLUTE
    _printf_widthprec                        0x00000000   Number         0  printf_stubs.o ABSOLUTE
    __ARM_exceptions_init                     - Undefined Weak Reference
    __alloca_initialize                       - Undefined Weak Reference
    __arm_preinit_                            - Undefined Weak Reference
    __cpp_initialize__aeabi_                  - Undefined Weak Reference
    __cxa_finalize                            - Undefined Weak Reference
    __sigvec_lookup                           - Undefined Weak Reference
    _atexit_init                              - Undefined Weak Reference
    _call_atexit_fns                          - Undefined Weak Reference
    _clock_init                               - Undefined Weak Reference
    _fp_trap_init                             - Undefined Weak Reference
    _fp_trap_shutdown                         - Undefined Weak Reference
    _get_lc_collate                           - Undefined Weak Reference
    _get_lc_monetary                          - Undefined Weak Reference
    _get_lc_time                              - Undefined Weak Reference
    _getenv_init                              - Undefined Weak Reference
    _handle_redirection                       - Undefined Weak Reference
    _init_alloc                               - Undefined Weak Reference
    _init_user_alloc                          - Undefined Weak Reference
    _initio                                   - Undefined Weak Reference
    _mutex_acquire                            - Undefined Weak Reference
    _mutex_release                            - Undefined Weak Reference
    _printf_mbtowc                            - Undefined Weak Reference
    _printf_wc                                - Undefined Weak Reference
    _rand_init                                - Undefined Weak Reference
    _signal_finish                            - Undefined Weak Reference
    _signal_init                              - Undefined Weak Reference
    _terminate_alloc                          - Undefined Weak Reference
    _terminate_user_alloc                     - Undefined Weak Reference
    _terminateio                              - Undefined Weak Reference
    __Vectors_Size                           0x000000ec   Number         0  startup_stm32f10x_md.o ABSOLUTE
    __Vectors                                0x08000000   Data           4  startup_stm32f10x_md.o(RESET)
    __Vectors_End                            0x080000ec   Data           0  startup_stm32f10x_md.o(RESET)
    __main                                   0x080000ed   Thumb Code     8  __main.o(!!!main)
    __scatterload                            0x080000f5   Thumb Code     0  __scatter.o(!!!scatter)
    __scatterload_rt2                        0x080000f5   Thumb Code    44  __scatter.o(!!!scatter)
    __scatterload_rt2_thumb_only             0x080000f5   Thumb Code     0  __scatter.o(!!!scatter)
    __scatterload_null                       0x08000103   Thumb Code     0  __scatter.o(!!!scatter)
    __scatterload_copy                       0x08000129   Thumb Code    26  __scatter_copy.o(!!handler_copy)
    __scatterload_zeroinit                   0x08000145   Thumb Code    28  __scatter_zi.o(!!handler_zi)
    _printf_d                                0x08000161   Thumb Code     0  _printf_d.o(.ARM.Collect$$_printf_percent$$00000009)
    _printf_percent                          0x08000161   Thumb Code     0  _printf_percent.o(.ARM.Collect$$_printf_percent$$00000000)
    _printf_percent_end                      0x08000167   Thumb Code     0  _printf_percent_end.o(.ARM.Collect$$_printf_percent$$00000017)
    __rt_lib_init                            0x0800016b   Thumb Code     0  libinit.o(.ARM.Collect$$libinit$$00000000)
    __rt_lib_init_alloca_1                   0x0800016d   Thumb Code     0  libinit2.o(.ARM.Collect$$libinit$$0000002E)
    __rt_lib_init_argv_1                     0x0800016d   Thumb Code     0  libinit2.o(.ARM.Collect$$libinit$$0000002C)
    __rt_lib_init_atexit_1                   0x0800016d   Thumb Code     0  libinit2.o(.ARM.Collect$$libinit$$0000001B)
    __rt_lib_init_clock_1                    0x0800016d   Thumb Code     0  libinit2.o(.ARM.Collect$$libinit$$00000021)
    __rt_lib_init_cpp_1                      0x0800016d   Thumb Code     0  libinit2.o(.ARM.Collect$$libinit$$00000032)
    __rt_lib_init_exceptions_1               0x0800016d   Thumb Code     0  libinit2.o(.ARM.Collect$$libinit$$00000030)
    __rt_lib_init_fp_1                       0x0800016d   Thumb Code     0  libinit2.o(.ARM.Collect$$libinit$$00000002)
    __rt_lib_init_fp_trap_1                  0x0800016d   Thumb Code     0  libinit2.o(.ARM.Collect$$libinit$$0000001F)
    __rt_lib_init_getenv_1                   0x0800016d   Thumb Code     0  libinit2.o(.ARM.Collect$$libinit$$00000023)
    __rt_lib_init_heap_1                     0x0800016d   Thumb Code     0  libinit2.o(.ARM.Collect$$libinit$$0000000A)
    __rt_lib_init_lc_collate_1               0x0800016d   Thumb Code     0  libinit2.o(.ARM.Collect$$libinit$$00000011)
    __rt_lib_init_lc_ctype_1                 0x0800016d   Thumb Code     0  libinit2.o(.ARM.Collect$$libinit$$00000013)
    __rt_lib_init_lc_monetary_1              0x0800016d   Thumb Code     0  libinit2.o(.ARM.Collect$$libinit$$00000015)
    __rt_lib_init_lc_numeric_1               0x0800016d   Thumb Code     0  libinit2.o(.ARM.Collect$$libinit$$00000017)
    __rt_lib_init_lc_time_1                  0x0800016d   Thumb Code     0  libinit2.o(.ARM.Collect$$libinit$$00000019)
    __rt_lib_init_preinit_1                  0x0800016d   Thumb Code     0  libinit2.o(.ARM.Collect$$libinit$$00000004)
    __rt_lib_init_rand_1                     0x0800016d   Thumb Code     0  libinit2.o(.ARM.Collect$$libinit$$0000000E)
    __rt_lib_init_return                     0x0800016d   Thumb Code     0  libinit2.o(.ARM.Collect$$libinit$$00000033)
    __rt_lib_init_signal_1                   0x0800016d   Thumb Code     0  libinit2.o(.ARM.Collect$$libinit$$0000001D)
    __rt_lib_init_stdio_1                    0x0800016d   Thumb Code     0  libinit2.o(.ARM.Collect$$libinit$$00000025)
    __rt_lib_init_user_alloc_1               0x0800016d   Thumb Code     0  libinit2.o(.ARM.Collect$$libinit$$0000000C)
    __rt_lib_shutdown                        0x0800016f   Thumb Code     0  libshutdown.o(.ARM.Collect$$libshutdown$$00000000)
    __rt_lib_shutdown_cpp_1                  0x08000171   Thumb Code     0  libshutdown2.o(.ARM.Collect$$libshutdown$$00000002)
    __rt_lib_shutdown_fp_trap_1              0x08000171   Thumb Code     0  libshutdown2.o(.ARM.Collect$$libshutdown$$00000007)
    __rt_lib_shutdown_heap_1                 0x08000171   Thumb Code     0  libshutdown2.o(.ARM.Collect$$libshutdown$$0000000F)
    __rt_lib_shutdown_return                 0x08000171   Thumb Code     0  libshutdown2.o(.ARM.Collect$$libshutdown$$00000010)
    __rt_lib_shutdown_signal_1               0x08000171   Thumb Code     0  libshutdown2.o(.ARM.Collect$$libshutdown$$0000000A)
    __rt_lib_shutdown_stdio_1                0x08000171   Thumb Code     0  libshutdown2.o(.ARM.Collect$$libshutdown$$00000004)
    __rt_lib_shutdown_user_alloc_1           0x08000171   Thumb Code     0  libshutdown2.o(.ARM.Collect$$libshutdown$$0000000C)
    __rt_entry                               0x08000173   Thumb Code     0  __rtentry.o(.ARM.Collect$$rtentry$$00000000)
    __rt_entry_presh_1                       0x08000173   Thumb Code     0  __rtentry2.o(.ARM.Collect$$rtentry$$00000002)
    __rt_entry_sh                            0x08000173   Thumb Code     0  __rtentry4.o(.ARM.Collect$$rtentry$$00000004)
    __rt_entry_li                            0x08000179   Thumb Code     0  __rtentry2.o(.ARM.Collect$$rtentry$$0000000A)
    __rt_entry_postsh_1                      0x08000179   Thumb Code     0  __rtentry2.o(.ARM.Collect$$rtentry$$00000009)
    __rt_entry_main                          0x0800017d   Thumb Code     0  __rtentry2.o(.ARM.Collect$$rtentry$$0000000D)
    __rt_entry_postli_1                      0x0800017d   Thumb Code     0  __rtentry2.o(.ARM.Collect$$rtentry$$0000000C)
    __rt_exit                                0x08000185   Thumb Code     0  rtexit.o(.ARM.Collect$$rtexit$$00000000)
    __rt_exit_ls                             0x08000187   Thumb Code     0  rtexit2.o(.ARM.Collect$$rtexit$$00000003)
    __rt_exit_prels_1                        0x08000187   Thumb Code     0  rtexit2.o(.ARM.Collect$$rtexit$$00000002)
    __rt_exit_exit                           0x0800018b   Thumb Code     0  rtexit2.o(.ARM.Collect$$rtexit$$00000004)
    Reset_Handler                            0x08000191   Thumb Code     8  startup_stm32f10x_md.o(.text)
    NMI_Handler                              0x08000199   Thumb Code     2  startup_stm32f10x_md.o(.text)
    HardFault_Handler                        0x0800019b   Thumb Code     2  startup_stm32f10x_md.o(.text)
    MemManage_Handler                        0x0800019d   Thumb Code     2  startup_stm32f10x_md.o(.text)
    BusFault_Handler                         0x0800019f   Thumb Code     2  startup_stm32f10x_md.o(.text)
    UsageFault_Handler                       0x080001a1   Thumb Code     2  startup_stm32f10x_md.o(.text)
    SVC_Handler                              0x080001a3   Thumb Code     2  startup_stm32f10x_md.o(.text)
    DebugMon_Handler                         0x080001a5   Thumb Code     2  startup_stm32f10x_md.o(.text)
    PendSV_Handler                           0x080001a7   Thumb Code     2  startup_stm32f10x_md.o(.text)
    SysTick_Handler                          0x080001a9   Thumb Code     2  startup_stm32f10x_md.o(.text)
    ADC1_2_IRQHandler                        0x080001ab   Thumb Code     0  startup_stm32f10x_md.o(.text)
    CAN1_RX1_IRQHandler                      0x080001ab   Thumb Code     0  startup_stm32f10x_md.o(.text)
    CAN1_SCE_IRQHandler                      0x080001ab   Thumb Code     0  startup_stm32f10x_md.o(.text)
    DMA1_Channel1_IRQHandler                 0x080001ab   Thumb Code     0  startup_stm32f10x_md.o(.text)
    DMA1_Channel2_IRQHandler                 0x080001ab   Thumb Code     0  startup_stm32f10x_md.o(.text)
    DMA1_Channel3_IRQHandler                 0x080001ab   Thumb Code     0  startup_stm32f10x_md.o(.text)
    DMA1_Channel4_IRQHandler                 0x080001ab   Thumb Code     0  startup_stm32f10x_md.o(.text)
    DMA1_Channel5_IRQHandler                 0x080001ab   Thumb Code     0  startup_stm32f10x_md.o(.text)
    DMA1_Channel6_IRQHandler                 0x080001ab   Thumb Code     0  startup_stm32f10x_md.o(.text)
    DMA1_Channel7_IRQHandler                 0x080001ab   Thumb Code     0  startup_stm32f10x_md.o(.text)
    EXTI0_IRQHandler                         0x080001ab   Thumb Code     0  startup_stm32f10x_md.o(.text)
    EXTI15_10_IRQHandler                     0x080001ab   Thumb Code     0  startup_stm32f10x_md.o(.text)
    EXTI1_IRQHandler                         0x080001ab   Thumb Code     0  startup_stm32f10x_md.o(.text)
    EXTI2_IRQHandler                         0x080001ab   Thumb Code     0  startup_stm32f10x_md.o(.text)
    EXTI3_IRQHandler                         0x080001ab   Thumb Code     0  startup_stm32f10x_md.o(.text)
    EXTI4_IRQHandler                         0x080001ab   Thumb Code     0  startup_stm32f10x_md.o(.text)
    EXTI9_5_IRQHandler                       0x080001ab   Thumb Code     0  startup_stm32f10x_md.o(.text)
    FLASH_IRQHandler                         0x080001ab   Thumb Code     0  startup_stm32f10x_md.o(.text)
    I2C1_ER_IRQHandler                       0x080001ab   Thumb Code     0  startup_stm32f10x_md.o(.text)
    I2C1_EV_IRQHandler                       0x080001ab   Thumb Code     0  startup_stm32f10x_md.o(.text)
    I2C2_ER_IRQHandler                       0x080001ab   Thumb Code     0  startup_stm32f10x_md.o(.text)
    I2C2_EV_IRQHandler                       0x080001ab   Thumb Code     0  startup_stm32f10x_md.o(.text)
    PVD_IRQHandler                           0x080001ab   Thumb Code     0  startup_stm32f10x_md.o(.text)
    RCC_IRQHandler                           0x080001ab   Thumb Code     0  startup_stm32f10x_md.o(.text)
    RTCAlarm_IRQHandler                      0x080001ab   Thumb Code     0  startup_stm32f10x_md.o(.text)
    RTC_IRQHandler                           0x080001ab   Thumb Code     0  startup_stm32f10x_md.o(.text)
    SPI1_IRQHandler                          0x080001ab   Thumb Code     0  startup_stm32f10x_md.o(.text)
    SPI2_IRQHandler                          0x080001ab   Thumb Code     0  startup_stm32f10x_md.o(.text)
    TAMPER_IRQHandler                        0x080001ab   Thumb Code     0  startup_stm32f10x_md.o(.text)
    TIM1_BRK_IRQHandler                      0x080001ab   Thumb Code     0  startup_stm32f10x_md.o(.text)
    TIM1_CC_IRQHandler                       0x080001ab   Thumb Code     0  startup_stm32f10x_md.o(.text)
    TIM1_TRG_COM_IRQHandler                  0x080001ab   Thumb Code     0  startup_stm32f10x_md.o(.text)
    TIM1_UP_IRQHandler                       0x080001ab   Thumb Code     0  startup_stm32f10x_md.o(.text)
    TIM2_IRQHandler                          0x080001ab   Thumb Code     0  startup_stm32f10x_md.o(.text)
    TIM3_IRQHandler                          0x080001ab   Thumb Code     0  startup_stm32f10x_md.o(.text)
    TIM4_IRQHandler                          0x080001ab   Thumb Code     0  startup_stm32f10x_md.o(.text)
    USBWakeUp_IRQHandler                     0x080001ab   Thumb Code     0  startup_stm32f10x_md.o(.text)
    USB_HP_CAN1_TX_IRQHandler                0x080001ab   Thumb Code     0  startup_stm32f10x_md.o(.text)
    USB_LP_CAN1_RX0_IRQHandler               0x080001ab   Thumb Code     0  startup_stm32f10x_md.o(.text)
    WWDG_IRQHandler                          0x080001ab   Thumb Code     0  startup_stm32f10x_md.o(.text)
    __user_initial_stackheap                 0x080001ad   Thumb Code     0  startup_stm32f10x_md.o(.text)
    __2printf                                0x080001d1   Thumb Code    20  noretval__2printf.o(.text)
    _printf_int_dec                          0x080001e9   Thumb Code   104  _printf_dec.o(.text)
    __printf                                 0x08000261   Thumb Code   388  __printf_flags_ss_wp.o(.text)
    putchar                                  0x080003e9   Thumb Code     6  putchar.o(.text)
    puts                                     0x080003f5   Thumb Code    40  puts.o(.text)
    __use_two_region_memory                  0x08000421   Thumb Code     2  heapauxi.o(.text)
    __rt_heap_escrow$2region                 0x08000423   Thumb Code     2  heapauxi.o(.text)
    __rt_heap_expand$2region                 0x08000425   Thumb Code     2  heapauxi.o(.text)
    _printf_int_common                       0x08000427   Thumb Code   178  _printf_intcommon.o(.text)
    _printf_char_common                      0x080004e3   Thumb Code    32  _printf_char_common.o(.text)
    _printf_char_file                        0x08000509   Thumb Code    32  _printf_char_file.o(.text)
    ferror                                   0x0800052d   Thumb Code     8  ferror.o(.text)
    __user_libspace                          0x08000535   Thumb Code     8  libspace.o(.text)
    __user_perproc_libspace                  0x08000535   Thumb Code     0  libspace.o(.text)
    __user_perthread_libspace                0x08000535   Thumb Code     0  libspace.o(.text)
    __user_setup_stackheap                   0x0800053d   Thumb Code    74  sys_stackheap_outer.o(.text)
    exit                                     0x08000587   Thumb Code    18  exit.o(.text)
    _sys_exit                                0x08000599   Thumb Code     8  sys_exit.o(.text)
    __I$use$semihosting                      0x080005a5   Thumb Code     0  use_no_semi.o(.text)
    __use_no_semihosting_swi                 0x080005a5   Thumb Code     2  use_no_semi.o(.text)
    __semihosting_library_function           0x080005a7   Thumb Code     0  indicate_semi.o(.text)
    CheckSum                                 0x080005a9   Thumb Code    56  sec_message.o(.text.CheckSum)
    Fsm_Receive_Message                      0x080005e1   Thumb Code   324  sec_fsm.o(.text.Fsm_Receive_Message)
    GET_GPIO_PORT_Init                       0x08000725   Thumb Code    60  sec_gpio.o(.text.GET_GPIO_PORT_Init)
    GPIO_Init                                0x08000761   Thumb Code   176  stm32f10x_gpio.o(.text.GPIO_Init)
    GPIO_PinRemapConfig                      0x08000811   Thumb Code   110  stm32f10x_gpio.o(.text.GPIO_PinRemapConfig)
    GPIO_ReadInputDataBit                    0x08000881   Thumb Code    10  stm32f10x_gpio.o(.text.GPIO_ReadInputDataBit)
    GPIO_ResetBits                           0x0800088d   Thumb Code     4  stm32f10x_gpio.o(.text.GPIO_ResetBits)
    GPIO_SetBits                             0x08000891   Thumb Code     4  stm32f10x_gpio.o(.text.GPIO_SetBits)
    RCC_APB2PeriphClockCmd                   0x08000895   Thumb Code    24  stm32f10x_rcc.o(.text.RCC_APB2PeriphClockCmd)
    SEC_Clear_TimeOut_Fsm                    0x080008ad   Thumb Code    34  sec_fsm.o(.text.SEC_Clear_TimeOut_Fsm)
    SEC_DELAY_Init                           0x080008d1   Thumb Code    46  sec_delay.o(.text.SEC_DELAY_Init)
    SEC_DELAY_ms                             0x08000901   Thumb Code    50  sec_delay.o(.text.SEC_DELAY_ms)
    SEC_GPIO_Init                            0x08000935   Thumb Code    18  sec_gpio.o(.text.SEC_GPIO_Init)
    SEC_GPIO_Set_ON                          0x08000949   Thumb Code   122  sec_gpio.o(.text.SEC_GPIO_Set_ON)
    SEC_Read_status_port                     0x080009c5   Thumb Code    50  sec_split_time.o(.text.SEC_Read_status_port)
    SEC_Split_frame_time                     0x080009f9   Thumb Code   352  sec_split_time.o(.text.SEC_Split_frame_time)
    SEC_Sys_Init                             0x08000b59   Thumb Code    32  sec_sys.o(.text.SEC_Sys_Init)
    SEC_Sys_Run                              0x08000b79   Thumb Code    20  sec_sys.o(.text.SEC_Sys_Run)
    SEC_TimeOut_Fsm                          0x08000b8d   Thumb Code    44  sec_fsm.o(.text.SEC_TimeOut_Fsm)
    SEC_Uart1_SendChar                       0x08000bb9   Thumb Code    20  sec_uart.o(.text.SEC_Uart1_SendChar)
    SEC_Uart_Init1                           0x08000bcd   Thumb Code    92  sec_uart.o(.text.SEC_Uart_Init1)
    SEC_Uart_Init2                           0x08000c29   Thumb Code   128  sec_uart.o(.text.SEC_Uart_Init2)
    SET_GPIO_PORT_Init                       0x08000ca9   Thumb Code    92  sec_gpio.o(.text.SET_GPIO_PORT_Init)
    SET_GPIO_PORT_RS485_Init                 0x08000d05   Thumb Code    48  sec_uart.o(.text.SET_GPIO_PORT_RS485_Init)
    Sec_Convert_From_Bytes_To_Uint16         0x08000d35   Thumb Code     6  sec_convert.o(.text.Sec_Convert_From_Bytes_To_Uint16)
    SystemInit                               0x08000e01   Thumb Code    86  system_stm32f10x.o(.text.SystemInit)
    USART1_IRQHandler                        0x08000e59   Thumb Code    44  sec_uart.o(.text.USART1_IRQHandler)
    USART2_IRQHandler                        0x08000e85   Thumb Code    40  sec_uart.o(.text.USART2_IRQHandler)
    USART3_IRQHandler                        0x08000ead   Thumb Code    80  sec_uart.o(.text.USART3_IRQHandler)
    USART_ClearITPendingBit                  0x08000efd   Thumb Code    14  stm32f10x_usart.o(.text.USART_ClearITPendingBit)
    USART_ReceiveData                        0x08000f0d   Thumb Code     8  stm32f10x_usart.o(.text.USART_ReceiveData)
    fputc                                    0x08000f35   Thumb Code    14  sec_uart.o(.text.fputc)
    main                                     0x08000f45   Thumb Code    10  main.o(.text.main)
    ringbuffer_init                          0x08000f51   Thumb Code    26  sec_ringbuffer.o(.text.ringbuffer_init)
    _is_digit                                0x08000f6b   Thumb Code    14  __printf_wp.o(i._is_digit)
    Region$$Table$$Base                      0x08000f90   Number         0  anon$$obj.o(Region$$Table)
    Region$$Table$$Limit                     0x08000fb0   Number         0  anon$$obj.o(Region$$Table)
    SystemCoreClock                          0x20000004   Data           4  system_stm32f10x.o(.data.SystemCoreClock)
    arr_port                                 0x20000008   Data          48  sec_split_time.o(.data.arr_port)
    status_time                              0x20000038   Data           1  sec_split_time.o(.data.status_time)
    __libspace_start                         0x20000040   Data          96  libspace.o(.bss)
    __temporary_stack_top$libspace           0x200000a0   Data           0  libspace.o(.bss)
    Array1_Receive                           0x200000b4   Data          50  sec_uart.o(.bss.Array1_Receive)
    Array2_Receive                           0x200000e6   Data          50  sec_uart.o(.bss.Array2_Receive)
    Array3_Receive                           0x20000118   Data          50  sec_uart.o(.bss.Array3_Receive)
    Count1_Data                              0x2000014a   Data           1  sec_uart.o(.bss.Count1_Data)
    Count3_Data                              0x2000014b   Data           1  sec_uart.o(.bss.Count3_Data)
    Flag3_Receive                            0x2000014e   Data           1  sec_uart.o(.bss.Flag3_Receive)
    __stdout                                 0x20000154   Data          84  sec_uart.o(.bss.__stdout)
    data_in                                  0x200001a8   Data          24  sec_fsm.o(.bss.data_in)
    fsm_state                                0x200001c3   Data           1  sec_fsm.o(.bss.fsm_state)
    ringbuffer_Test                          0x200001c4   Data          16  sec_uart.o(.bss.ringbuffer_Test)
    sec_vrAll_fsm_t                          0x200001d4   Data          35  sec_fsm.o(.bss.sec_vrAll_fsm_t)



==============================================================================

Memory Map of the image

  Image Entry point : 0x080000ed

  Load Region LR_IROM1 (Base: 0x08000000, Size: 0x00000ff0, Max: 0x00010000, ABSOLUTE)

    Execution Region ER_IROM1 (Exec base: 0x08000000, Load base: 0x08000000, Size: 0x00000fb0, Max: 0x00010000, ABSOLUTE)

    Exec Addr    Load Addr    Size         Type   Attr      Idx    E Section Name        Object

    0x08000000   0x08000000   0x000000ec   Data   RO          781    RESET               startup_stm32f10x_md.o
    0x080000ec   0x080000ec   0x00000008   Code   RO          899  * !!!main             c_w.l(__main.o)
    0x080000f4   0x080000f4   0x00000034   Code   RO         1269    !!!scatter          c_w.l(__scatter.o)
    0x08000128   0x08000128   0x0000001a   Code   RO         1271    !!handler_copy      c_w.l(__scatter_copy.o)
    0x08000142   0x08000142   0x00000002   PAD
    0x08000144   0x08000144   0x0000001c   Code   RO         1273    !!handler_zi        c_w.l(__scatter_zi.o)
    0x08000160   0x08000160   0x00000000   Code   RO          885    .ARM.Collect$$_printf_percent$$00000000  c_w.l(_printf_percent.o)
    0x08000160   0x08000160   0x00000006   Code   RO          882    .ARM.Collect$$_printf_percent$$00000009  c_w.l(_printf_d.o)
    0x08000166   0x08000166   0x00000004   Code   RO          974    .ARM.Collect$$_printf_percent$$00000017  c_w.l(_printf_percent_end.o)
    0x0800016a   0x0800016a   0x00000002   Code   RO         1128    .ARM.Collect$$libinit$$00000000  c_w.l(libinit.o)
    0x0800016c   0x0800016c   0x00000000   Code   RO         1130    .ARM.Collect$$libinit$$00000002  c_w.l(libinit2.o)
    0x0800016c   0x0800016c   0x00000000   Code   RO         1132    .ARM.Collect$$libinit$$00000004  c_w.l(libinit2.o)
    0x0800016c   0x0800016c   0x00000000   Code   RO         1135    .ARM.Collect$$libinit$$0000000A  c_w.l(libinit2.o)
    0x0800016c   0x0800016c   0x00000000   Code   RO         1137    .ARM.Collect$$libinit$$0000000C  c_w.l(libinit2.o)
    0x0800016c   0x0800016c   0x00000000   Code   RO         1139    .ARM.Collect$$libinit$$0000000E  c_w.l(libinit2.o)
    0x0800016c   0x0800016c   0x00000000   Code   RO         1142    .ARM.Collect$$libinit$$00000011  c_w.l(libinit2.o)
    0x0800016c   0x0800016c   0x00000000   Code   RO         1144    .ARM.Collect$$libinit$$00000013  c_w.l(libinit2.o)
    0x0800016c   0x0800016c   0x00000000   Code   RO         1146    .ARM.Collect$$libinit$$00000015  c_w.l(libinit2.o)
    0x0800016c   0x0800016c   0x00000000   Code   RO         1148    .ARM.Collect$$libinit$$00000017  c_w.l(libinit2.o)
    0x0800016c   0x0800016c   0x00000000   Code   RO         1150    .ARM.Collect$$libinit$$00000019  c_w.l(libinit2.o)
    0x0800016c   0x0800016c   0x00000000   Code   RO         1152    .ARM.Collect$$libinit$$0000001B  c_w.l(libinit2.o)
    0x0800016c   0x0800016c   0x00000000   Code   RO         1154    .ARM.Collect$$libinit$$0000001D  c_w.l(libinit2.o)
    0x0800016c   0x0800016c   0x00000000   Code   RO         1156    .ARM.Collect$$libinit$$0000001F  c_w.l(libinit2.o)
    0x0800016c   0x0800016c   0x00000000   Code   RO         1158    .ARM.Collect$$libinit$$00000021  c_w.l(libinit2.o)
    0x0800016c   0x0800016c   0x00000000   Code   RO         1160    .ARM.Collect$$libinit$$00000023  c_w.l(libinit2.o)
    0x0800016c   0x0800016c   0x00000000   Code   RO         1162    .ARM.Collect$$libinit$$00000025  c_w.l(libinit2.o)
    0x0800016c   0x0800016c   0x00000000   Code   RO         1166    .ARM.Collect$$libinit$$0000002C  c_w.l(libinit2.o)
    0x0800016c   0x0800016c   0x00000000   Code   RO         1168    .ARM.Collect$$libinit$$0000002E  c_w.l(libinit2.o)
    0x0800016c   0x0800016c   0x00000000   Code   RO         1170    .ARM.Collect$$libinit$$00000030  c_w.l(libinit2.o)
    0x0800016c   0x0800016c   0x00000000   Code   RO         1172    .ARM.Collect$$libinit$$00000032  c_w.l(libinit2.o)
    0x0800016c   0x0800016c   0x00000002   Code   RO         1173    .ARM.Collect$$libinit$$00000033  c_w.l(libinit2.o)
    0x0800016e   0x0800016e   0x00000002   Code   RO         1215    .ARM.Collect$$libshutdown$$00000000  c_w.l(libshutdown.o)
    0x08000170   0x08000170   0x00000000   Code   RO         1226    .ARM.Collect$$libshutdown$$00000002  c_w.l(libshutdown2.o)
    0x08000170   0x08000170   0x00000000   Code   RO         1228    .ARM.Collect$$libshutdown$$00000004  c_w.l(libshutdown2.o)
    0x08000170   0x08000170   0x00000000   Code   RO         1231    .ARM.Collect$$libshutdown$$00000007  c_w.l(libshutdown2.o)
    0x08000170   0x08000170   0x00000000   Code   RO         1234    .ARM.Collect$$libshutdown$$0000000A  c_w.l(libshutdown2.o)
    0x08000170   0x08000170   0x00000000   Code   RO         1236    .ARM.Collect$$libshutdown$$0000000C  c_w.l(libshutdown2.o)
    0x08000170   0x08000170   0x00000000   Code   RO         1239    .ARM.Collect$$libshutdown$$0000000F  c_w.l(libshutdown2.o)
    0x08000170   0x08000170   0x00000002   Code   RO         1240    .ARM.Collect$$libshutdown$$00000010  c_w.l(libshutdown2.o)
    0x08000172   0x08000172   0x00000000   Code   RO          955    .ARM.Collect$$rtentry$$00000000  c_w.l(__rtentry.o)
    0x08000172   0x08000172   0x00000000   Code   RO         1031    .ARM.Collect$$rtentry$$00000002  c_w.l(__rtentry2.o)
    0x08000172   0x08000172   0x00000006   Code   RO         1043    .ARM.Collect$$rtentry$$00000004  c_w.l(__rtentry4.o)
    0x08000178   0x08000178   0x00000000   Code   RO         1033    .ARM.Collect$$rtentry$$00000009  c_w.l(__rtentry2.o)
    0x08000178   0x08000178   0x00000004   Code   RO         1034    .ARM.Collect$$rtentry$$0000000A  c_w.l(__rtentry2.o)
    0x0800017c   0x0800017c   0x00000000   Code   RO         1036    .ARM.Collect$$rtentry$$0000000C  c_w.l(__rtentry2.o)
    0x0800017c   0x0800017c   0x00000008   Code   RO         1037    .ARM.Collect$$rtentry$$0000000D  c_w.l(__rtentry2.o)
    0x08000184   0x08000184   0x00000002   Code   RO         1178    .ARM.Collect$$rtexit$$00000000  c_w.l(rtexit.o)
    0x08000186   0x08000186   0x00000000   Code   RO         1189    .ARM.Collect$$rtexit$$00000002  c_w.l(rtexit2.o)
    0x08000186   0x08000186   0x00000004   Code   RO         1190    .ARM.Collect$$rtexit$$00000003  c_w.l(rtexit2.o)
    0x0800018a   0x0800018a   0x00000006   Code   RO         1191    .ARM.Collect$$rtexit$$00000004  c_w.l(rtexit2.o)
    0x08000190   0x08000190   0x00000040   Code   RO          782    .text               startup_stm32f10x_md.o
    0x080001d0   0x080001d0   0x00000018   Code   RO          813    .text               c_w.l(noretval__2printf.o)
    0x080001e8   0x080001e8   0x00000078   Code   RO          825    .text               c_w.l(_printf_dec.o)
    0x08000260   0x08000260   0x00000188   Code   RO          874    .text               c_w.l(__printf_flags_ss_wp.o)
    0x080003e8   0x080003e8   0x0000000c   Code   RO          887    .text               c_w.l(putchar.o)
    0x080003f4   0x080003f4   0x0000002c   Code   RO          889    .text               c_w.l(puts.o)
    0x08000420   0x08000420   0x00000006   Code   RO          897    .text               c_w.l(heapauxi.o)
    0x08000426   0x08000426   0x000000b2   Code   RO          958    .text               c_w.l(_printf_intcommon.o)
    0x080004d8   0x080004d8   0x00000030   Code   RO          964    .text               c_w.l(_printf_char_common.o)
    0x08000508   0x08000508   0x00000024   Code   RO          970    .text               c_w.l(_printf_char_file.o)
    0x0800052c   0x0800052c   0x00000008   Code   RO         1090    .text               c_w.l(ferror.o)
    0x08000534   0x08000534   0x00000008   Code   RO         1109    .text               c_w.l(libspace.o)
    0x0800053c   0x0800053c   0x0000004a   Code   RO         1112    .text               c_w.l(sys_stackheap_outer.o)
    0x08000586   0x08000586   0x00000012   Code   RO         1119    .text               c_w.l(exit.o)
    0x08000598   0x08000598   0x0000000c   Code   RO         1201    .text               c_w.l(sys_exit.o)
    0x080005a4   0x080005a4   0x00000002   Code   RO         1216    .text               c_w.l(use_no_semi.o)
    0x080005a6   0x080005a6   0x00000000   Code   RO         1218    .text               c_w.l(indicate_semi.o)
    0x080005a6   0x080005a6   0x00000002   PAD
    0x080005a8   0x080005a8   0x00000038   Code   RO          208    .text.CheckSum      sec_message.o
    0x080005e0   0x080005e0   0x00000144   Code   RO          139    .text.Fsm_Receive_Message  sec_fsm.o
    0x08000724   0x08000724   0x0000003c   Code   RO          159    .text.GET_GPIO_PORT_Init  sec_gpio.o
    0x08000760   0x08000760   0x000000b0   Code   RO          406    .text.GPIO_Init     stm32f10x_gpio.o
    0x08000810   0x08000810   0x0000006e   Code   RO          432    .text.GPIO_PinRemapConfig  stm32f10x_gpio.o
    0x0800087e   0x0800087e   0x00000002   PAD
    0x08000880   0x08000880   0x0000000a   Code   RO          410    .text.GPIO_ReadInputDataBit  stm32f10x_gpio.o
    0x0800088a   0x0800088a   0x00000002   PAD
    0x0800088c   0x0800088c   0x00000004   Code   RO          420    .text.GPIO_ResetBits  stm32f10x_gpio.o
    0x08000890   0x08000890   0x00000004   Code   RO          418    .text.GPIO_SetBits  stm32f10x_gpio.o
    0x08000894   0x08000894   0x00000018   Code   RO          491    .text.RCC_APB2PeriphClockCmd  stm32f10x_rcc.o
    0x080008ac   0x080008ac   0x00000022   Code   RO          137    .text.SEC_Clear_TimeOut_Fsm  sec_fsm.o
    0x080008ce   0x080008ce   0x00000002   PAD
    0x080008d0   0x080008d0   0x0000002e   Code   RO           89    .text.SEC_DELAY_Init  sec_delay.o
    0x080008fe   0x080008fe   0x00000002   PAD
    0x08000900   0x08000900   0x00000032   Code   RO           91    .text.SEC_DELAY_ms  sec_delay.o
    0x08000932   0x08000932   0x00000002   PAD
    0x08000934   0x08000934   0x00000012   Code   RO          155    .text.SEC_GPIO_Init  sec_gpio.o
    0x08000946   0x08000946   0x00000002   PAD
    0x08000948   0x08000948   0x0000007a   Code   RO          163    .text.SEC_GPIO_Set_ON  sec_gpio.o
    0x080009c2   0x080009c2   0x00000002   PAD
    0x080009c4   0x080009c4   0x00000032   Code   RO          361    .text.SEC_Read_status_port  sec_split_time.o
    0x080009f6   0x080009f6   0x00000002   PAD
    0x080009f8   0x080009f8   0x00000160   Code   RO          359    .text.SEC_Split_frame_time  sec_split_time.o
    0x08000b58   0x08000b58   0x00000020   Code   RO          252    .text.SEC_Sys_Init  sec_sys.o
    0x08000b78   0x08000b78   0x00000014   Code   RO          254    .text.SEC_Sys_Run   sec_sys.o
    0x08000b8c   0x08000b8c   0x0000002c   Code   RO          135    .text.SEC_TimeOut_Fsm  sec_fsm.o
    0x08000bb8   0x08000bb8   0x00000014   Code   RO          286    .text.SEC_Uart1_SendChar  sec_uart.o
    0x08000bcc   0x08000bcc   0x0000005c   Code   RO          290    .text.SEC_Uart_Init1  sec_uart.o
    0x08000c28   0x08000c28   0x00000080   Code   RO          292    .text.SEC_Uart_Init2  sec_uart.o
    0x08000ca8   0x08000ca8   0x0000005c   Code   RO          157    .text.SET_GPIO_PORT_Init  sec_gpio.o
    0x08000d04   0x08000d04   0x00000030   Code   RO          320    .text.SET_GPIO_PORT_RS485_Init  sec_uart.o
    0x08000d34   0x08000d34   0x00000006   Code   RO           61    .text.Sec_Convert_From_Bytes_To_Uint16  sec_convert.o
    0x08000d3a   0x08000d3a   0x00000002   PAD
    0x08000d3c   0x08000d3c   0x00000004   Code   RO          791    .text.SetSysClock   system_stm32f10x.o
    0x08000d40   0x08000d40   0x000000be   Code   RO          795    .text.SetSysClockTo72  system_stm32f10x.o
    0x08000dfe   0x08000dfe   0x00000002   PAD
    0x08000e00   0x08000e00   0x00000056   Code   RO          789    .text.SystemInit    system_stm32f10x.o
    0x08000e56   0x08000e56   0x00000002   PAD
    0x08000e58   0x08000e58   0x0000002c   Code   RO          314    .text.USART1_IRQHandler  sec_uart.o
    0x08000e84   0x08000e84   0x00000028   Code   RO          316    .text.USART2_IRQHandler  sec_uart.o
    0x08000eac   0x08000eac   0x00000050   Code   RO          318    .text.USART3_IRQHandler  sec_uart.o
    0x08000efc   0x08000efc   0x0000000e   Code   RO          769    .text.USART_ClearITPendingBit  stm32f10x_usart.o
    0x08000f0a   0x08000f0a   0x00000002   PAD
    0x08000f0c   0x08000f0c   0x00000008   Code   RO          741    .text.USART_ReceiveData  stm32f10x_usart.o
    0x08000f14   0x08000f14   0x00000020   Code   RO          296    .text.__NVIC_EnableIRQ  sec_uart.o
    0x08000f34   0x08000f34   0x0000000e   Code   RO          284    .text.fputc         sec_uart.o
    0x08000f42   0x08000f42   0x00000002   PAD
    0x08000f44   0x08000f44   0x0000000a   Code   RO            2    .text.main          main.o
    0x08000f4e   0x08000f4e   0x00000002   PAD
    0x08000f50   0x08000f50   0x0000001a   Code   RO          223    .text.ringbuffer_init  sec_ringbuffer.o
    0x08000f6a   0x08000f6a   0x0000000e   Code   RO          867    i._is_digit         c_w.l(__printf_wp.o)
    0x08000f78   0x08000f78   0x00000011   Data   RO          875    .constdata          c_w.l(__printf_flags_ss_wp.o)
    0x08000f89   0x08000f89   0x00000004   Data   RO          370    .rodata.str1.1      sec_split_time.o
    0x08000f8d   0x08000f8d   0x00000003   PAD
    0x08000f90   0x08000f90   0x00000020   Data   RO         1268    Region$$Table       anon$$obj.o


    Execution Region RW_IRAM1 (Exec base: 0x20000000, Load base: 0x08000fb0, Size: 0x000007f8, Max: 0x00005000, ABSOLUTE)

    Exec Addr    Load Addr    Size         Type   Attr      Idx    E Section Name        Object

    0x20000000   0x08000fb0   0x00000001   Data   RW          368    .data.Count_port    sec_split_time.o
    0x20000001   0x08000fb1   0x00000003   PAD
    0x20000004   0x08000fb4   0x00000004   Data   RW          797    .data.SystemCoreClock  system_stm32f10x.o
    0x20000008   0x08000fb8   0x00000030   Data   RW          367    .data.arr_port      sec_split_time.o
    0x20000038   0x08000fe8   0x00000001   Data   RW          365    .data.status_time   sec_split_time.o
    0x20000039   0x08000fe9   0x00000007   PAD
    0x20000040        -       0x00000060   Zero   RW         1110    .bss                c_w.l(libspace.o)
    0x200000a0        -       0x0000000a   Zero   RW          372    .bss.Arr_status_new  sec_split_time.o
    0x200000aa        -       0x0000000a   Zero   RW          371    .bss.Arr_status_old  sec_split_time.o
    0x200000b4        -       0x00000032   Zero   RW          330    .bss.Array1_Receive  sec_uart.o
    0x200000e6        -       0x00000032   Zero   RW          329    .bss.Array2_Receive  sec_uart.o
    0x20000118        -       0x00000032   Zero   RW          331    .bss.Array3_Receive  sec_uart.o
    0x2000014a        -       0x00000001   Zero   RW          323    .bss.Count1_Data    sec_uart.o
    0x2000014b        -       0x00000001   Zero   RW          327    .bss.Count3_Data    sec_uart.o
    0x2000014c        -       0x00000002   Zero   RW          369    .bss.Count_time     sec_split_time.o
    0x2000014e        -       0x00000001   Zero   RW          326    .bss.Flag3_Receive  sec_uart.o
    0x2000014f        -       0x00000001   Zero   RW          142    .bss.Flag_TimeOut_Fsm  sec_fsm.o
    0x20000150        -       0x00000002   Zero   RW          143    .bss.TimeOut_Fsm    sec_fsm.o
    0x20000152   0x08000fe9   0x00000002   PAD
    0x20000154        -       0x00000054   Zero   RW          332    .bss.__stdout       sec_uart.o
    0x200001a8        -       0x00000018   Zero   RW          145    .bss.data_in        sec_fsm.o
    0x200001c0        -       0x00000002   Zero   RW           96    .bss.fac_ms         sec_delay.o
    0x200001c2        -       0x00000001   Zero   RW           95    .bss.fac_us         sec_delay.o
    0x200001c3        -       0x00000001   Zero   RW          141    .bss.fsm_state      sec_fsm.o
    0x200001c4        -       0x00000010   Zero   RW          328    .bss.ringbuffer_Test  sec_uart.o
    0x200001d4        -       0x00000023   Zero   RW          144    .bss.sec_vrAll_fsm_t  sec_fsm.o
    0x200001f7   0x08000fe9   0x00000001   PAD
    0x200001f8        -       0x00000200   Zero   RW          780    HEAP                startup_stm32f10x_md.o
    0x200003f8        -       0x00000400   Zero   RW          779    STACK               startup_stm32f10x_md.o


==============================================================================

Image component sizes


      Code (inc. data)   RO Data    RW Data    ZI Data      Debug   Object Name

        10          0          0          0          0        363   main.o
         6          0          0          0          0       5127   sec_convert.o
        96          0          0          0          3       1527   sec_delay.o
       402          6          0          0         63       2339   sec_fsm.o
       292          6          0          0          0       2464   sec_gpio.o
        56          0          0          0          0       2906   sec_message.o
        26          0          0          0          0       2879   sec_ringbuffer.o
       402         36          4         50         22       2515   sec_split_time.o
        52          0          0          0          0        457   sec_sys.o
       498          0          0          0        253       7487   sec_uart.o
        64         26        236          0       1536        840   startup_stm32f10x_md.o
       304          0          0          0          0       5718   stm32f10x_gpio.o
        24          0          0          0          0       7387   stm32f10x_rcc.o
        22          0          0          0          0       7664   stm32f10x_usart.o
       280          0          0          4          0       2786   system_stm32f10x.o

    ----------------------------------------------------------------------
      2562         74        275         60       1884      52459   Object Totals
         0          0         32          0          0          0   (incl. Generated)
        28          0          3          6          7          0   (incl. Padding)

    ----------------------------------------------------------------------

      Code (inc. data)   RO Data    RW Data    ZI Data      Debug   Library Member Name

         8          0          0          0          0         68   __main.o
       392          4         17          0          0         92   __printf_flags_ss_wp.o
        14          0          0          0          0         68   __printf_wp.o
         0          0          0          0          0          0   __rtentry.o
        12          0          0          0          0          0   __rtentry2.o
         6          0          0          0          0          0   __rtentry4.o
        52          8          0          0          0          0   __scatter.o
        26          0          0          0          0          0   __scatter_copy.o
        28          0          0          0          0          0   __scatter_zi.o
        48          6          0          0          0         96   _printf_char_common.o
        36          4          0          0          0         80   _printf_char_file.o
         6          0          0          0          0          0   _printf_d.o
       120         16          0          0          0         92   _printf_dec.o
       178          0          0          0          0         88   _printf_intcommon.o
         0          0          0          0          0          0   _printf_percent.o
         4          0          0          0          0          0   _printf_percent_end.o
        18          0          0          0          0         80   exit.o
         8          0          0          0          0         68   ferror.o
         6          0          0          0          0        152   heapauxi.o
         0          0          0          0          0          0   indicate_semi.o
         2          0          0          0          0          0   libinit.o
         2          0          0          0          0          0   libinit2.o
         2          0          0          0          0          0   libshutdown.o
         2          0          0          0          0          0   libshutdown2.o
         8          4          0          0         96         68   libspace.o
        24          4          0          0          0         84   noretval__2printf.o
        12          6          0          0          0         68   putchar.o
        44          4          0          0          0         84   puts.o
         2          0          0          0          0          0   rtexit.o
        10          0          0          0          0          0   rtexit2.o
        12          4          0          0          0         68   sys_exit.o
        74          0          0          0          0         80   sys_stackheap_outer.o
         2          0          0          0          0         68   use_no_semi.o

    ----------------------------------------------------------------------
      1162         60         17          0         96       1404   Library Totals
         4          0          0          0          0          0   (incl. Padding)

    ----------------------------------------------------------------------

      Code (inc. data)   RO Data    RW Data    ZI Data      Debug   Library Name

      1158         60         17          0         96       1404   c_w.l

    ----------------------------------------------------------------------
      1162         60         17          0         96       1404   Library Totals

    ----------------------------------------------------------------------

==============================================================================


      Code (inc. data)   RO Data    RW Data    ZI Data      Debug   

      3724        134        292         60       1980      53027   Grand Totals
      3724        134        292         60       1980      53027   ELF Image Totals
      3724        134        292         60          0          0   ROM Totals

==============================================================================

    Total RO  Size (Code + RO Data)                 4016 (   3.92kB)
    Total RW  Size (RW Data + ZI Data)              2040 (   1.99kB)
    Total ROM Size (Code + RO Data + RW Data)       4076 (   3.98kB)

==============================================================================

